{
  "_format": "hh-sol-artifact-1",
  "contractName": "MockACL",
  "sourceName": "contracts/mocks/MockACL.sol",
  "abi": [
    {
      "inputs": [
        {
          "internalType": "uint256",
          "name": "handle",
          "type": "uint256"
        },
        {
          "internalType": "address",
          "name": "account",
          "type": "address"
        }
      ],
      "name": "allow",
      "outputs": [],
      "stateMutability": "nonpayable",
      "type": "function"
    },
    {
      "inputs": [
        {
          "internalType": "uint256[]",
          "name": "handlesList",
          "type": "uint256[]"
        }
      ],
      "name": "allowForDecryption",
      "outputs": [],
      "stateMutability": "nonpayable",
      "type": "function"
    },
    {
      "inputs": [
        {
          "internalType": "uint256",
          "name": "ciphertext",
          "type": "uint256"
        },
        {
          "internalType": "address",
          "name": "account",
          "type": "address"
        }
      ],
      "name": "allowTransient",
      "outputs": [],
      "stateMutability": "nonpayable",
      "type": "function"
    },
    {
      "inputs": [],
      "name": "cleanTransientStorage",
      "outputs": [],
      "stateMutability": "nonpayable",
      "type": "function"
    },
    {
      "inputs": [
        {
          "internalType": "uint256",
          "name": "handle",
          "type": "uint256"
        },
        {
          "internalType": "address",
          "name": "account",
          "type": "address"
        }
      ],
      "name": "isAllowed",
      "outputs": [
        {
          "internalType": "bool",
          "name": "",
          "type": "bool"
        }
      ],
      "stateMutability": "view",
      "type": "function"
    }
  ],
  "bytecode": "0x608060405234801561000f575f80fd5b506102a58061001d5f395ff3fe608060405234801561000f575f80fd5b5060043610610055575f3560e01c806335334c2314610059578063557e10041461005b5780635faa299a1461006e57806365d0509c146100b85780638d9c9c92146100b8575b5f80fd5b005b610059610069366004610169565b6100f3565b6100a461007c366004610222565b5f918252602082815260408084206001600160a01b0393909316845291905290205460ff1690565b604051901515815260200160405180910390f35b6100596100c6366004610222565b5f918252602082815260408084206001600160a01b0390931684529190529020805460ff19166001179055565b5f5b81518110156101515760015f808484815181106101145761011461025b565b60209081029190910181015182528181019290925260409081015f9081203382529092529020805460ff19169115159190911790556001016100f5565b5050565b634e487b7160e01b5f52604160045260245ffd5b5f602080838503121561017a575f80fd5b823567ffffffffffffffff80821115610191575f80fd5b818501915085601f8301126101a4575f80fd5b8135818111156101b6576101b6610155565b8060051b604051601f19603f830116810181811085821117156101db576101db610155565b6040529182528482019250838101850191888311156101f8575f80fd5b938501935b82851015610216578435845293850193928501926101fd565b98975050505050505050565b5f8060408385031215610233575f80fd5b8235915060208301356001600160a01b0381168114610250575f80fd5b809150509250929050565b634e487b7160e01b5f52603260045260245ffdfea26469706673582212201a5b0a1b054c8dc37b98fa85d587bf84f37ddcc7463de5390a65796a1877534f64736f6c63430008180033",
  "linkReferences": {},
  "deployedLinkReferences": {}
}