{
  "_format": "hh-sol-artifact-1",
  "contractName": "ConfidentialDonations",
  "sourceName": "contracts/ConfidentialDonations.sol",
  "abi": [
    {
      "inputs": [
        {
          "internalType": "address",
          "name": "_feeCollector",
          "type": "address"
        }
      ],
      "stateMutability": "nonpayable",
      "type": "constructor"
    },
    {
      "inputs": [
        {
          "internalType": "address",
          "name": "owner",
          "type": "address"
        }
      ],
      "name": "OwnableInvalidOwner",
      "type": "error"
    },
    {
      "inputs": [
        {
          "internalType": "address",
          "name": "account",
          "type": "address"
        }
      ],
      "name": "OwnableUnauthorizedAccount",
      "type": "error"
    },
    {
      "inputs": [],
      "name": "ReentrancyGuardReentrantCall",
      "type": "error"
    },
    {
      "anonymous": false,
      "inputs": [
        {
          "indexed": true,
          "internalType": "uint256",
          "name": "campaignId",
          "type": "uint256"
        },
        {
          "indexed": false,
          "internalType": "string",
          "name": "name",
          "type": "string"
        },
        {
          "indexed": true,
          "internalType": "address",
          "name": "beneficiary",
          "type": "address"
        },
        {
          "indexed": false,
          "internalType": "uint256",
          "name": "deadline",
          "type": "uint256"
        }
      ],
      "name": "CampaignCreated",
      "type": "event"
    },
    {
      "anonymous": false,
      "inputs": [
        {
          "indexed": true,
          "internalType": "uint256",
          "name": "campaignId",
          "type": "uint256"
        },
        {
          "indexed": true,
          "internalType": "address",
          "name": "donor",
          "type": "address"
        },
        {
          "indexed": false,
          "internalType": "uint256",
          "name": "timestamp",
          "type": "uint256"
        },
        {
          "indexed": false,
          "internalType": "bool",
          "name": "isAnonymous",
          "type": "bool"
        }
      ],
      "name": "DonationMade",
      "type": "event"
    },
    {
      "anonymous": false,
      "inputs": [
        {
          "indexed": true,
          "internalType": "uint256",
          "name": "campaignId",
          "type": "uint256"
        },
        {
          "indexed": true,
          "internalType": "address",
          "name": "beneficiary",
          "type": "address"
        },
        {
          "indexed": false,
          "internalType": "uint256",
          "name": "amount",
          "type": "uint256"
        }
      ],
      "name": "FundsWithdrawn",
      "type": "event"
    },
    {
      "anonymous": false,
      "inputs": [
        {
          "indexed": true,
          "internalType": "address",
          "name": "previousOwner",
          "type": "address"
        },
        {
          "indexed": true,
          "internalType": "address",
          "name": "newOwner",
          "type": "address"
        }
      ],
      "name": "OwnershipTransferred",
      "type": "event"
    },
    {
      "inputs": [
        {
          "internalType": "uint256",
          "name": "",
          "type": "uint256"
        }
      ],
      "name": "campaignBalances",
      "outputs": [
        {
          "internalType": "uint256",
          "name": "",
          "type": "uint256"
        }
      ],
      "stateMutability": "view",
      "type": "function"
    },
    {
      "inputs": [],
      "name": "campaignCounter",
      "outputs": [
        {
          "internalType": "uint256",
          "name": "",
          "type": "uint256"
        }
      ],
      "stateMutability": "view",
      "type": "function"
    },
    {
      "inputs": [
        {
          "internalType": "uint256",
          "name": "",
          "type": "uint256"
        }
      ],
      "name": "campaigns",
      "outputs": [
        {
          "internalType": "string",
          "name": "name",
          "type": "string"
        },
        {
          "internalType": "string",
          "name": "description",
          "type": "string"
        },
        {
          "internalType": "address payable",
          "name": "beneficiary",
          "type": "address"
        },
        {
          "internalType": "euint64",
          "name": "encryptedGoal",
          "type": "uint256"
        },
        {
          "internalType": "euint64",
          "name": "encryptedTotalRaised",
          "type": "uint256"
        },
        {
          "internalType": "uint256",
          "name": "deadline",
          "type": "uint256"
        },
        {
          "internalType": "bool",
          "name": "active",
          "type": "bool"
        },
        {
          "internalType": "uint256",
          "name": "donorCount",
          "type": "uint256"
        },
        {
          "internalType": "uint256",
          "name": "createdAt",
          "type": "uint256"
        }
      ],
      "stateMutability": "view",
      "type": "function"
    },
    {
      "inputs": [
        {
          "internalType": "uint256",
          "name": "_campaignId",
          "type": "uint256"
        }
      ],
      "name": "canDecryptMyContribution",
      "outputs": [
        {
          "internalType": "bool",
          "name": "",
          "type": "bool"
        }
      ],
      "stateMutability": "view",
      "type": "function"
    },
    {
      "inputs": [
        {
          "internalType": "string",
          "name": "_name",
          "type": "string"
        },
        {
          "internalType": "string",
          "name": "_description",
          "type": "string"
        },
        {
          "internalType": "einput",
          "name": "_encryptedGoal",
          "type": "bytes32"
        },
        {
          "internalType": "bytes",
          "name": "_goalProof",
          "type": "bytes"
        },
        {
          "internalType": "uint256",
          "name": "_durationDays",
          "type": "uint256"
        }
      ],
      "name": "createCampaign",
      "outputs": [],
      "stateMutability": "nonpayable",
      "type": "function"
    },
    {
      "inputs": [
        {
          "internalType": "uint256",
          "name": "_campaignId",
          "type": "uint256"
        },
        {
          "internalType": "einput",
          "name": "_encryptedAmount",
          "type": "bytes32"
        },
        {
          "internalType": "bytes",
          "name": "_proof",
          "type": "bytes"
        },
        {
          "internalType": "bool",
          "name": "_anonymous",
          "type": "bool"
        }
      ],
      "name": "donate",
      "outputs": [],
      "stateMutability": "payable",
      "type": "function"
    },
    {
      "inputs": [],
      "name": "feeCollector",
      "outputs": [
        {
          "internalType": "address",
          "name": "",
          "type": "address"
        }
      ],
      "stateMutability": "view",
      "type": "function"
    },
    {
      "inputs": [],
      "name": "getActiveCampaigns",
      "outputs": [
        {
          "internalType": "uint256[]",
          "name": "",
          "type": "uint256[]"
        }
      ],
      "stateMutability": "view",
      "type": "function"
    },
    {
      "inputs": [
        {
          "internalType": "uint256",
          "name": "_campaignId",
          "type": "uint256"
        }
      ],
      "name": "getCampaignInfo",
      "outputs": [
        {
          "internalType": "string",
          "name": "name",
          "type": "string"
        },
        {
          "internalType": "string",
          "name": "description",
          "type": "string"
        },
        {
          "internalType": "address",
          "name": "beneficiary",
          "type": "address"
        },
        {
          "internalType": "uint256",
          "name": "deadline",
          "type": "uint256"
        },
        {
          "internalType": "bool",
          "name": "active",
          "type": "bool"
        },
        {
          "internalType": "uint256",
          "name": "donorCount",
          "type": "uint256"
        },
        {
          "internalType": "uint256",
          "name": "createdAt",
          "type": "uint256"
        }
      ],
      "stateMutability": "view",
      "type": "function"
    },
    {
      "inputs": [
        {
          "internalType": "uint256",
          "name": "_campaignId",
          "type": "uint256"
        }
      ],
      "name": "getMyContribution",
      "outputs": [
        {
          "internalType": "euint64",
          "name": "",
          "type": "uint256"
        }
      ],
      "stateMutability": "view",
      "type": "function"
    },
    {
      "inputs": [
        {
          "internalType": "uint256",
          "name": "_campaignId",
          "type": "uint256"
        }
      ],
      "name": "getMyContributionHandle",
      "outputs": [
        {
          "internalType": "bytes32",
          "name": "",
          "type": "bytes32"
        }
      ],
      "stateMutability": "view",
      "type": "function"
    },
    {
      "inputs": [
        {
          "internalType": "address",
          "name": "_user",
          "type": "address"
        }
      ],
      "name": "getUserCampaigns",
      "outputs": [
        {
          "internalType": "uint256[]",
          "name": "",
          "type": "uint256[]"
        }
      ],
      "stateMutability": "view",
      "type": "function"
    },
    {
      "inputs": [
        {
          "internalType": "uint256",
          "name": "",
          "type": "uint256"
        },
        {
          "internalType": "address",
          "name": "",
          "type": "address"
        }
      ],
      "name": "hasDonated",
      "outputs": [
        {
          "internalType": "bool",
          "name": "",
          "type": "bool"
        }
      ],
      "stateMutability": "view",
      "type": "function"
    },
    {
      "inputs": [],
      "name": "owner",
      "outputs": [
        {
          "internalType": "address",
          "name": "",
          "type": "address"
        }
      ],
      "stateMutability": "view",
      "type": "function"
    },
    {
      "inputs": [],
      "name": "pause",
      "outputs": [],
      "stateMutability": "nonpayable",
      "type": "function"
    },
    {
      "inputs": [],
      "name": "paused",
      "outputs": [
        {
          "internalType": "bool",
          "name": "",
          "type": "bool"
        }
      ],
      "stateMutability": "view",
      "type": "function"
    },
    {
      "inputs": [],
      "name": "platformFeePercentage",
      "outputs": [
        {
          "internalType": "uint256",
          "name": "",
          "type": "uint256"
        }
      ],
      "stateMutability": "view",
      "type": "function"
    },
    {
      "inputs": [],
      "name": "renounceOwnership",
      "outputs": [],
      "stateMutability": "nonpayable",
      "type": "function"
    },
    {
      "inputs": [
        {
          "internalType": "address",
          "name": "newOwner",
          "type": "address"
        }
      ],
      "name": "transferOwnership",
      "outputs": [],
      "stateMutability": "nonpayable",
      "type": "function"
    },
    {
      "inputs": [],
      "name": "unpause",
      "outputs": [],
      "stateMutability": "nonpayable",
      "type": "function"
    },
    {
      "inputs": [
        {
          "internalType": "address",
          "name": "_newFeeCollector",
          "type": "address"
        }
      ],
      "name": "updateFeeCollector",
      "outputs": [],
      "stateMutability": "nonpayable",
      "type": "function"
    },
    {
      "inputs": [
        {
          "internalType": "uint256",
          "name": "_campaignId",
          "type": "uint256"
        }
      ],
      "name": "withdrawFunds",
      "outputs": [],
      "stateMutability": "nonpayable",
      "type": "function"
    },
    {
      "stateMutability": "payable",
      "type": "receive"
    }
  ],
  "bytecode": "0x608060405260fa60095534801562000015575f80fd5b506040516200211a3803806200211a8339810160408190526200003891620002c1565b33620001b5620000d9604080516080810182525f808252602082018190529181018290526060810191909152506040805160808101825273fee8407e2f5e3ee68ad77cae98c434e637f516e5815273687408ab54661ba0b4aef3a44156c616c6955e076020820152739d6891a6240d6130c54ae243d8005063d05fe14b91810191909152733a2da6f1dae9ef988b48d9cf27523fa31a8ebe50606082015290565b80517fed8d60e34876f751cc8b014c560745351147d9de11b9347c854e881b128ea60080546001600160a01b03199081166001600160a01b039384161790915560208301517fed8d60e34876f751cc8b014c560745351147d9de11b9347c854e881b128ea6018054831691841691909117905560408301517fed8d60e34876f751cc8b014c560745351147d9de11b9347c854e881b128ea6028054831691841691909117905560608301517fed8d60e34876f751cc8b014c560745351147d9de11b9347c854e881b128ea6038054909216921691909117905550565b6001600160a01b038116620001e457604051631e4fbdf760e01b81525f60048201526024015b60405180910390fd5b620001ef8162000272565b50600180556001600160a01b0381166200024c5760405162461bcd60e51b815260206004820152601560248201527f496e76616c69642066656520636f6c6c6563746f7200000000000000000000006044820152606401620001db565b600a80546001600160a01b0319166001600160a01b0392909216919091179055620002f0565b5f80546001600160a01b038381166001600160a01b0319831681178455604051919092169283917f8be0079c531659141344cd1fd0a4f28419497f9722a3daafe3b4186f6b6457e09190a35050565b5f60208284031215620002d2575f80fd5b81516001600160a01b0381168114620002e9575f80fd5b9392505050565b611e1c80620002fe5f395ff3fe608060405260043610610134575f3560e01c8063bd8993fa116100a8578063d2c35ce81161006d578063d2c35ce814610370578063d72cdb1e1461038f578063e38e2b82146103a2578063f2fde38b146103d4578063fca604d7146103f3578063fe13f4a614610408575f80fd5b8063bd8993fa146102f2578063c362b15614610328578063c415b95c1461033c578063cdd78cfc1461035b578063cf33f48d146102f2575f80fd5b80635c975abb116100f95780635c975abb1461022f578063715018a61461024f5780638456cb59146102635780638da5cb5b146102775780638eb5bbb8146102a7578063a1e5084c146102c6575f80fd5b80630235cacc1461013f578063141961bc1461017d578063155dd5ee146101b15780631e155398146101d25780633f4ba83a1461021b575f80fd5b3661013b57005b5f80fd5b34801561014a575f80fd5b5061016a610159366004611773565b60076020525f908152604090205481565b6040519081526020015b60405180910390f35b348015610188575f80fd5b5061019c610197366004611773565b610427565b604051610174999897969594939291906117cd565b3480156101bc575f80fd5b506101d06101cb366004611773565b610589565b005b3480156101dd575f80fd5b5061020b6101ec366004611853565b600660209081525f928352604080842090915290825290205460ff1681565b6040519015158152602001610174565b348015610226575f80fd5b506101d0610753565b34801561023a575f80fd5b50600a5461020b90600160a01b900460ff1681565b34801561025a575f80fd5b506101d061076a565b34801561026e575f80fd5b506101d061077d565b348015610282575f80fd5b505f546001600160a01b03165b6040516001600160a01b039091168152602001610174565b3480156102b2575f80fd5b5061020b6102c1366004611773565b61079a565b3480156102d1575f80fd5b506102e56102e036600461187d565b6107c2565b6040516101749190611896565b3480156102fd575f80fd5b5061016a61030c366004611773565b5f90815260046020908152604080832033845290915290205490565b348015610333575f80fd5b506102e561082b565b348015610347575f80fd5b50600a5461028f906001600160a01b031681565b348015610366575f80fd5b5061016a60095481565b34801561037b575f80fd5b506101d061038a36600461187d565b610949565b6101d061039d36600461192b565b6109bb565b3480156103ad575f80fd5b506103c16103bc366004611773565b610e57565b6040516101749796959493929190611991565b3480156103df575f80fd5b506101d06103ee36600461187d565b610ff6565b3480156103fe575f80fd5b5061016a60085481565b348015610413575f80fd5b506101d0610422366004611a86565b611033565b60026020525f908152604090208054819061044190611b20565b80601f016020809104026020016040519081016040528092919081815260200182805461046d90611b20565b80156104b85780601f1061048f576101008083540402835291602001916104b8565b820191905f5260205f20905b81548152906001019060200180831161049b57829003601f168201915b5050505050908060010180546104cd90611b20565b80601f01602080910402602001604051908101604052809291908181526020018280546104f990611b20565b80156105445780601f1061051b57610100808354040283529160200191610544565b820191905f5260205f20905b81548152906001019060200180831161052757829003601f168201915b50505060028401546003850154600486015460058701546006880154600789015460089099015497986001600160a01b03909516979396509194509260ff9091169189565b8060085481106105b45760405162461bcd60e51b81526004016105ab90611b58565b60405180910390fd5b6105bc61130f565b5f828152600260208190526040909120908101546001600160a01b031633146106195760405162461bcd60e51b815260206004820152600f60248201526e4e6f742062656e656669636961727960881b60448201526064016105ab565b600681015460ff166106635760405162461bcd60e51b815260206004820152601360248201527243616d706169676e206e6f742061637469766560681b60448201526064016105ab565b5f83815260076020526040902054806106a95760405162461bcd60e51b81526020600482015260086024820152674e6f2066756e647360c01b60448201526064016105ab565b60068201805460ff191690555f84815260076020526040808220829055600284015490516001600160a01b039091169183156108fc02918491818181858888f193505050501580156106fd573d5f803e3d5ffd5b5060028201546040518281526001600160a01b039091169085907ff440aec6b52895984d061d622e6edeba6210f7c3e059be920663140c084560d79060200160405180910390a3505061074f60018055565b5050565b61075b611339565b600a805460ff60a01b19169055565b610772611339565b61077b5f611365565b565b610785611339565b600a805460ff60a01b1916600160a01b179055565b5f8181526004602090815260408083203384529091528120546107bc906113b4565b92915050565b6001600160a01b0381165f9081526005602090815260409182902080548351818402810184019094528084526060939283018282801561081f57602002820191905f5260205f20905b81548152602001906001019080831161080b575b50505050509050919050565b60605f805b600854811015610884575f8181526002602052604090206006015460ff16801561086957505f8181526002602052604090206005015442105b1561087c578161087881611ba3565b9250505b600101610830565b505f8167ffffffffffffffff81111561089f5761089f6119e9565b6040519080825280602002602001820160405280156108c8578160200160208202803683370190505b5090505f805b600854811015610940575f8181526002602052604090206006015460ff16801561090757505f8181526002602052604090206005015442105b15610938578083838151811061091f5761091f611bbb565b60209081029190910101528161093481611ba3565b9250505b6001016108ce565b50909392505050565b610951611339565b6001600160a01b0381166109995760405162461bcd60e51b815260206004820152600f60248201526e496e76616c6964206164647265737360881b60448201526064016105ab565b600a80546001600160a01b0319166001600160a01b0392909216919091179055565b8460085481106109dd5760405162461bcd60e51b81526004016105ab90611b58565b5f86815260026020526040902060060154869060ff16610a355760405162461bcd60e51b815260206004820152601360248201527243616d706169676e206e6f742061637469766560681b60448201526064016105ab565b5f818152600260205260409020600501544210610a875760405162461bcd60e51b815260206004820152601060248201526f10d85b5c185a59db88195e1c1a5c995960821b60448201526064016105ab565b600a54600160a01b900460ff1615610ad65760405162461bcd60e51b815260206004820152601260248201527110dbdb9d1c9858dd081a5cc81c185d5cd95960721b60448201526064016105ab565b610ade61130f565b66038d7ea4c68000341015610b355760405162461bcd60e51b815260206004820152601b60248201527f4d696e696d756d20646f6e6174696f6e3a20302e30303120455448000000000060448201526064016105ab565b5f8781526002602090815260408083208151601f89018490048402810184019092528782529291610b81918a918a908a90819084018382808284375f920191909152506113bf92505050565b9050610b8c816113d3565b5f61271060095434610b9e9190611bcf565b610ba89190611be6565b90505f610bb58234611c05565b90505f610bc1826113dd565b9050610bcc816113d3565b610bda8560040154826113e9565b60048601819055610bea906113d3565b5f8c815260066020908152604080832033845290915290205460ff16610c2a575f8c81526004602090815260408083203384529091529020849055610c67565b5f8c8152600460209081526040808320338452909152902054610c4d90856113e9565b5f8d81526004602090815260408083203384529091529020555b5f8c815260066020908152604080832033845290915290205460ff16610cc157600785018054905f610c9883611ba3565b90915550505f8c81526006602090815260408083203384529091529020805460ff191660011790555b60035f8d81526020019081526020015f206040518060a001604052808e81526020018a610cee5733610cf0565b5f5b6001600160a01b0390811682526020808301869052426040808501919091528d15156060948501528554600180820188555f97885283882087516005909302019182559286015192810180546001600160a01b031916938516939093179092558481015160028301559284015160038201556080909301516004909301805460ff191693151593909317909255600a5490519116916108fc861502918691818181858888f19350505050158015610da9573d5f803e3d5ffd5b505f8c81526007602052604081208054849290610dc7908490611c18565b90915550506002850154610de59082906001600160a01b0316611417565b87610df05733610df2565b5f5b6001600160a01b03168c7f665ae3d7b1878285ba5b24aad2297e9585ab3110185e2d75a78f33772084e9b5428b604051610e389291909182521515602082015260400190565b60405180910390a35050505050610e4e60018055565b50505050505050565b6060805f805f805f876008548110610e815760405162461bcd60e51b81526004016105ab90611b58565b5f8981526002602081905260409091209081015460058201546006830154600784015460088501548554869560018701956001600160a01b0390911694909360ff9091169290918790610ed390611b20565b80601f0160208091040260200160405190810160405280929190818152602001828054610eff90611b20565b8015610f4a5780601f10610f2157610100808354040283529160200191610f4a565b820191905f5260205f20905b815481529060010190602001808311610f2d57829003601f168201915b50505050509650858054610f5d90611b20565b80601f0160208091040260200160405190810160405280929190818152602001828054610f8990611b20565b8015610fd45780601f10610fab57610100808354040283529160200191610fd4565b820191905f5260205f20905b815481529060010190602001808311610fb757829003601f168201915b5050505050955098509850985098509850985098505050919395979092949650565b610ffe611339565b6001600160a01b03811661102757604051631e4fbdf760e01b81525f60048201526024016105ab565b61103081611365565b50565b600a54600160a01b900460ff16156110825760405162461bcd60e51b815260206004820152601260248201527110dbdb9d1c9858dd081a5cc81c185d5cd95960721b60448201526064016105ab565b61108a61130f565b5f8651116110ca5760405162461bcd60e51b815260206004820152600d60248201526c13985b59481c995c5d5a5c9959609a1b60448201526064016105ab565b600181101580156110dd575061016d8111155b61111c5760405162461bcd60e51b815260206004820152601060248201526f24b73b30b634b210323ab930ba34b7b760811b60448201526064016105ab565b5f61115c8585858080601f0160208091040260200160405190810160405280939291908181526020018383808284375f920191909152506113bf92505050565b90505f6111685f6113dd565b9050611173826113d3565b61117c816113d3565b5f61118a8462015180611bcf565b6111949042611c18565b60408051610120810182528b815260208082018c90523382840152606082018790526080820186905260a08201849052600160c08301525f60e083018190524261010084015260085481526002909152919091208151929350909181906111fb9082611c77565b50602082015160018201906112109082611c77565b506040828101516002830180546001600160a01b0319166001600160a01b03909216919091179055606083015160038301556080830151600483015560a083015160058084019190915560c084015160068401805460ff191691151591909117905560e0840151600784015561010090930151600892830155335f818152602094855282812084548154600181018355918352959091200193909355905490517f85d038f2d0b3728e5fede2ce367934666edeabb735999e2be302dc035466b98b906112df908d908690611d33565b60405180910390a360088054905f6112f683611ba3565b919050555050505061130760018055565b505050505050565b60026001540361133257604051633ee5aeb560e01b815260040160405180910390fd5b6002600155565b5f546001600160a01b0316331461077b5760405163118cdaa760e01b81523360048201526024016105ab565b5f80546001600160a01b038381166001600160a01b0319831681178455604051919092169283917f8be0079c531659141344cd1fd0a4f28419497f9722a3daafe3b4186f6b6457e09190a35050565b5f6107bc8233611421565b5f6113cc838360056114ad565b9392505050565b61103081306115be565b5f6107bc82600561162b565b5f826113fb576113f85f6113dd565b92505b8161140c576114095f6113dd565b91505b6113cc83835f6116be565b61074f82826115be565b5f805f80516020611dc78339815191528054604051632fd514cd60e11b8152600481018790526001600160a01b038681166024830152929350911690635faa299a90604401602060405180830381865afa158015611481573d5f803e3d5ffd5b505050506040513d601f19601f820116820180604052508101906114a59190611d54565b949350505050565b7fed8d60e34876f751cc8b014c560745351147d9de11b9347c854e881b128ea601546040516302e817ff60e41b81525f915f80516020611dc7833981519152916001600160a01b0390911690632e817ff0906115179088903390899060f88a901b90600401611d6f565b6020604051808303815f875af1158015611533573d5f803e3d5ffd5b505050506040513d601f19601f820116820180604052508101906115579190611daf565b81546040516346ce4e4960e11b8152600481018390523360248201529193506001600160a01b031690638d9c9c92906044015f604051808303815f87803b1580156115a0575f80fd5b505af11580156115b2573d5f803e3d5ffd5b50505050509392505050565b5f5f80516020611dc78339815191528054604051631974142760e21b8152600481018690526001600160a01b0385811660248301529293509116906365d0509c906044015f604051808303815f87803b158015611619575f80fd5b505af1158015610e4e573d5f803e3d5ffd5b5f805f80516020611dc78339815191526001810154604051631ce2e8d760e31b8152600481018790526001600160f81b031960f887901b1660248201529192506001600160a01b03169063e71746b8906044016020604051808303815f875af115801561169a573d5f803e3d5ffd5b505050506040513d601f19601f820116820180604052508101906114a59190611daf565b5f8082156116d15750600160f81b6116d4565b505f5b5f5f80516020611dc7833981519152600181015460405163f953e42760e01b815260048101899052602481018890526001600160f81b0319851660448201529192506001600160a01b03169063f953e427906064016020604051808303815f875af1158015611745573d5f803e3d5ffd5b505050506040513d601f19601f820116820180604052508101906117699190611daf565b9695505050505050565b5f60208284031215611783575f80fd5b5035919050565b5f81518084525f5b818110156117ae57602081850181015186830182015201611792565b505f602082860101526020601f19601f83011685010191505092915050565b5f6101208083526117e08184018d61178a565b905082810360208401526117f4818c61178a565b6001600160a01b039a909a16604084015250506060810196909652608086019490945260a0850192909252151560c084015260e08301526101009091015292915050565b80356001600160a01b038116811461184e575f80fd5b919050565b5f8060408385031215611864575f80fd5b8235915061187460208401611838565b90509250929050565b5f6020828403121561188d575f80fd5b6113cc82611838565b602080825282518282018190525f9190848201906040850190845b818110156118cd578351835292840192918401916001016118b1565b50909695505050505050565b5f8083601f8401126118e9575f80fd5b50813567ffffffffffffffff811115611900575f80fd5b602083019150836020828501011115611917575f80fd5b9250929050565b8015158114611030575f80fd5b5f805f805f6080868803121561193f575f80fd5b8535945060208601359350604086013567ffffffffffffffff811115611963575f80fd5b61196f888289016118d9565b90945092505060608601356119838161191e565b809150509295509295909350565b60e081525f6119a360e083018a61178a565b82810360208401526119b5818a61178a565b6001600160a01b0398909816604084015250506060810194909452911515608084015260a083015260c09091015292915050565b634e487b7160e01b5f52604160045260245ffd5b5f82601f830112611a0c575f80fd5b813567ffffffffffffffff80821115611a2757611a276119e9565b604051601f8301601f19908116603f01168101908282118183101715611a4f57611a4f6119e9565b81604052838152866020858801011115611a67575f80fd5b836020870160208301375f602085830101528094505050505092915050565b5f805f805f8060a08789031215611a9b575f80fd5b863567ffffffffffffffff80821115611ab2575f80fd5b611abe8a838b016119fd565b97506020890135915080821115611ad3575f80fd5b611adf8a838b016119fd565b9650604089013595506060890135915080821115611afb575f80fd5b50611b0889828a016118d9565b979a9699509497949695608090950135949350505050565b600181811c90821680611b3457607f821691505b602082108103611b5257634e487b7160e01b5f52602260045260245ffd5b50919050565b60208082526017908201527f43616d706169676e20646f6573206e6f74206578697374000000000000000000604082015260600190565b634e487b7160e01b5f52601160045260245ffd5b5f60018201611bb457611bb4611b8f565b5060010190565b634e487b7160e01b5f52603260045260245ffd5b80820281158282048414176107bc576107bc611b8f565b5f82611c0057634e487b7160e01b5f52601260045260245ffd5b500490565b818103818111156107bc576107bc611b8f565b808201808211156107bc576107bc611b8f565b601f821115611c7257805f5260205f20601f840160051c81016020851015611c505750805b601f840160051c820191505b81811015611c6f575f8155600101611c5c565b50505b505050565b815167ffffffffffffffff811115611c9157611c916119e9565b611ca581611c9f8454611b20565b84611c2b565b602080601f831160018114611cd8575f8415611cc15750858301515b5f19600386901b1c1916600185901b178555611307565b5f85815260208120601f198616915b82811015611d0657888601518255948401946001909101908401611ce7565b5085821015611d2357878501515f19600388901b60f8161c191681555b5050505050600190811b01905550565b604081525f611d45604083018561178a565b90508260208301529392505050565b5f60208284031215611d64575f80fd5b81516113cc8161191e565b8481526001600160a01b03841660208201526080604082018190525f90611d989083018561178a565b905060ff60f81b8316606083015295945050505050565b5f60208284031215611dbf575f80fd5b505191905056feed8d60e34876f751cc8b014c560745351147d9de11b9347c854e881b128ea600a264697066735822122091d99db5fd2586e3554212024ff5fd8b99f708277cd906530a2f42c47ae3315064736f6c63430008180033",
  "linkReferences": {},
  "deployedLinkReferences": {}
}